:100000000C945B000C9481000C9481000C94810092
:100010000C9481000C9481000C9481000C9481005C
:100020000C9481000C9481000C9481000C9481004C
:100030000C9481000C9481000C9481000C9481003C
:100040000C948D020C9481000C94DC040C948100BF
:100050000C9481000C9481000C9481000C9481001C
:100060000C9481000C9481008C02000000070002B7
:10007000010000030406000000000000000001026F
:100080000408102040800102040810200102040826
:100090001020040404040404040402020202020204
:1000A0000303030303030000232629000025282B54
:1000B000000024272A0011241FBECFEFD4E0DEBFAA
:1000C000CDBF11E0A0E0B1E0E0EBFCE002C00590A4
:1000D0000D92A231B107D9F711E0A2E1B1E001C060
:1000E0001D92AB3BB107E1F710E0CAE6D0E004C0D7
:1000F0002297FE010E945406C836D107C9F70C9416
:10010000B1010C94000040E855E260E070E082E349
:1001100091E00E94BE010895EF92FF920F931F930A
:1001200082E391E00E94C301882309F415C182E3B0
:1001300091E00E94C70190932F0180932E0180913E
:100140000E010E943E0390932D0180932C0180911B
:1001500030010E943E0390932B0180932A018091ED
:100160000C010E943E039093290180932801809105
:100170000A010E943E0390932701809326018091FB
:1001800008010E943E0390932501809324018091F1
:1001900006010E94CE039093230180932201809157
:1001A00004010E94CE03909321018093200180914D
:1001B00002010E94CE0390931F0180931E01809143
:1001C00000010E94CE0390931D0180931C01809139
:1001D0002C0190912D0164E070E00E94EE057B01FE
:1001E00070931B0160931A0180912A0190912B0159
:1001F00064E070E00E94EE057093190160931801AD
:10020000809128019091290164E070E00E94EE0540
:100210007093170160931601809126019091270138
:1002200064E070E00E94EE05709315016093140184
:10023000809124019091250164E070E00E94EE0518
:1002400070931301609312010027F7FC0095102FA3
:1002500020E030E0B801A70182E391E00E945D0256
:100260004091180150911901662757FD6095762F2E
:1002700020E030E082E391E00E945D0240911601AF
:1002800050911701662757FD6095762F20E030E0EA
:1002900082E391E00E945D024091140150911501AA
:1002A000662757FD6095762F20E030E082E391E0ED
:1002B0000E945D024091120150911301662757FD83
:1002C0006095762F20E030E082E391E00E945D02AD
:1002D0008091220190912301892B11F088E401C0C3
:1002E0008CE40E949B0462E370E080E090E00E9456
:1002F000CA028091200190912101892B11F088E49C
:1003000001C08CE40E949B0462E370E080E090E016
:100310000E94CA0280911E0190911F01892B11F049
:1003200088E401C08CE40E949B0462E370E080E0FA
:1003300090E00E94CA0280911C0190911D01892BBE
:1003400011F088E401C08CE40E949B0462E370E039
:1003500080E090E00E94CA021F910F91FF90EF9001
:100360000895CFEFD4E0DEBFCDBF0E94F9020E9416
:1003700083000E948C00FDCF08950895CB01BA013F
:100380000E94620408950E94A304992708950E9480
:10039000B40408950E94D3040895862F0E941A057C
:1003A0000895CB010E9421050895862F0E941A0509
:1003B00008950F931F938C016DE00E94CD016AE0B8
:1003C000C8010E94CD011F910F9108950F931F93B3
:1003D0008C010E94CD01C8010E94D9011F910F918B
:1003E00008950F931F938C010E94D101C8010E94B0
:1003F000D9011F910F9108950F931F938C010E94B3
:10040000D501C8010E94D9011F910F910895CB0118
:10041000BA013327442755270E942E0508952AE064
:100420000E94070208950F931F938C010E940F02F0
:10043000C8010E94D9011F910F910895AB01662751
:1004400077270E940F0208950F931F938C010E943B
:100450001E02C8010E94D9011F910F910895EF92C9
:10046000FF920F931F93CF93DF93EC017A018B01DF
:1004700077FF0BC06DE20E94CD0110950095F094BE
:10048000E094E11CF11C011D111D2AE0B801A70137
:10049000CE010E940702DF91CF911F910F91FF9033
:1004A000EF9008950F931F938C010E942F02C801B3
:1004B0000E94D9011F910F9108952115310521F452
:1004C000642F0E94CD0108952A30310519F40E944D
:1004D0002F0208950E94070208950F931F938C0125
:1004E0000E945D02C8010E94D9011F910F910895D9
:1004F000AB01662757FD6095762F0E942F02089565
:100500000F931F938C010E947802C8010E94D901A9
:100510001F910F910895089508951F920F920FB69D
:100520000F9211248F939F93AF93BF9380913701C4
:1005300090913801A0913901B0913A010196A11D25
:10054000B11D8093370190933801A0933901B09386
:100550003A01BF91AF919F918F910F900FBE0F9075
:100560001F90189560913701709138018091390181
:1005700090913A0127E0660F771F881F991F2A95EF
:10058000D1F72DE730E040E050E00E940106CA01BB
:10059000B9010895AF92BF92CF92DF92EF92FF928E
:1005A0000F931F935B016C010E94B2027B018C01CF
:1005B0000E94B2026E197F09800B910B6A157B05B0
:1005C0008C059D05A8F31F910F91FF90EF90DF9090
:1005D000CF90BF90AF900895019751F0880F991F69
:1005E000880F991F02972FB7F8940197F1F72FBF43
:1005F00008957894109237011092380110923901C1
:1006000010923A0184B5826084BD84B5816084BD56
:1006100085B5826085BD85B5816085BDEEE6F0E07B
:10062000808181608083E1E8F0E080818260808366
:10063000808181608083E0E8F0E080818160808358
:10064000E1EBF0E0808184608083E0EBF0E080818A
:1006500081608083EAE7F0E080818460808380812C
:1006600082608083808181608083808180688083D4
:100670001092C10008958093100108959091100187
:100680009295990F990F907C8F70982B90937C0086
:1006900080917A00806480937A0080917A0086FD50
:1006A000FCCF20917800809179009927982F882796
:1006B0003327822B932B08951F93CF93DF93182F0B
:1006C000EB0161E00E94B003E12FFF27E659FF4FE5
:1006D0008491833051F48091800080688093800001
:1006E000D0938900C093880037C0843051F4809142
:1006F0008000806280938000D0938B00C0938A003A
:100700002BC0813029F484B5806884BDC7BD24C066
:10071000823029F484B5806284BDC8BD1DC0863096
:1007200041F48091B00080688093B000C093B30022
:1007300013C0873041F48091B00080628093B00094
:10074000C093B40009C0C038D10514F460E001C002
:1007500061E0812F0E941704DF91CF911F910895CE
:10076000282F3327C90182589F4FFC0194912E56A0
:100770003F4FF9018491882381F0E82FFF27E0554E
:10078000FF4FE491FF27662329F480819095892308
:10079000808308958081892B80830895482F552771
:1007A000CA0186599F4FFC012491CA0182589F4F6C
:1007B000FC0194914E565F4FFA0134913323A1F11D
:1007C000222331F1233021F4809180008F7705C0FE
:1007D000243031F4809180008F7D8093800018C098
:1007E000213019F484B58F7704C0223021F484B508
:1007F0008F7D84BD0DC0263021F48091B0008F77AD
:1008000005C0273029F48091B0008F7D8093B0001F
:10081000E32FFF27EA55FF4FE491FF2780818923CB
:1008200019F081E090E0089580E090E00895482F6D
:100830005527CA0186599F4FFC012491CA0182584D
:100840009F4FFC0194914E565F4FFA013491332330
:10085000C1F1222331F1233021F4809180008F7780
:1008600005C0243031F4809180008F7D809380001A
:1008700018C0213019F484B58F7704C0223021F4D8
:1008800084B58F7D84BD0DC0263021F48091B000E9
:100890008F7705C0273029F48091B0008F7D809339
:1008A000B000E32FFF27E555FF4FE491FF276623B4
:1008B00029F4808190958923808308958081892BF4
:1008C00080830895EF92FF920F931F937B018C0119
:1008D00022E030E040E050E00E942306205C3D4BE7
:1008E000404F5F4FCA01B901A80197010E9423063A
:1008F0002150304040405040BB2757FDBA95A52FAE
:10090000942F832F2F5F3F4F4F4F5F4F8093C50032
:1009100021502093C400E1ECF0E08081806180836D
:100920008081886080838081806880831F910F919F
:10093000FF90EF900895982F8091C00085FFFCCF25
:100940009093C600089580913501909136012091D1
:10095000330130913401821B930B80589F4F60E824
:1009600070E00E94EE0508954091330150913401EA
:1009700080913501909136018417950719F48FEF16
:100980009FEF0895FA01E55CFE4F2081CA010196B0
:1009900060E870E00E94EE0590933401809333018B
:1009A000822F99270895809133019091340190937B
:1009B00036018093350108951F920F920FB60F9262
:1009C00011242F933F934F935F936F937F938F9354
:1009D0009F93AF93BF93EF93FF934091C600E09135
:1009E0003501F0913601CF01019660E870E00E9478
:1009F000EE059C018091330190913401281739074D
:100A000039F0E55CFE4F4083309336012093350189
:100A1000FF91EF91BF91AF919F918F917F916F91D6
:100A20005F914F913F912F910F900FBE0F901F90AC
:100A3000189508950E949B0408958AE00E941A0563
:100A40000895CF93DF93EC0103C021960E941A050D
:100A500088818823D1F7DF91CF9108952F923F921B
:100A60004F925F926F927F928F929F92AF92BF92BE
:100A7000CF92DF92EF92FF920F931F93CF93DF936A
:100A8000CDB7DEB7A0970FB6F894DEBF0FBECDBFCF
:100A90006B017C0119012A01611571058105910520
:100AA00021F480E30E941A054BC066247724430199
:100AB0005E010894A11CB11C8501060D171DC7011C
:100AC000B601A20191010E940106F8016083089419
:100AD000611C711C811C911CC701B601A20191010E
:100AE0000E94010669017A01211531054105510570
:100AF00019F773010894E108F108EA0CFB1CAA2419
:100B0000BB24650111C0F70180818A3010F4805D3B
:100B100001C0895C0E941A050894A108B108C108A7
:100B2000D1080894E108F10888279927DC01861983
:100B30009709A809B909A816B906CA06DB0619F764
:100B4000A0960FB6F894DEBF0FBECDBFDF91CF9158
:100B50001F910F91FF90EF90DF90CF90BF90AF90DB
:100B60009F908F907F906F905F904F903F902F90CD
:100B70000895EF92FF920F931F937B018C0197FFD3
:100B80000BC08DE20E941A0510950095F094E09438
:100B9000E11CF11C011D111D2AE030E040E050E095
:100BA000C801B7010E942E051F910F91FF90EF9091
:100BB000089520E130E040E050E00E942E050895C5
:100BC00028E030E040E050E00E942E05089522E049
:100BD00030E040E050E00E942E05089597FB092E7A
:100BE00007260AD077FD04D049D006D000201AF499
:100BF000709561957F4F0895F6F7909581959F4F79
:100C00000895A1E21A2EAA1BBB1BFD010DC0AA1F4D
:100C1000BB1FEE1FFF1FA217B307E407F50720F065
:100C2000A21BB30BE40BF50B661F771F881F991FE0
:100C30001A9469F760957095809590959B01AC0129
:100C4000BD01CF01089597FB092E05260ED057FD53
:100C500004D0D7DF0AD0001C38F450954095309569
:100C600021953F4F4F4F5F4F0895F6F79095809530
:100C7000709561957F4F8F4F9F4F0895AA1BBB1BA7
:100C800051E107C0AA1FBB1FA617B70710F0A61B8C
:100C9000B70B881F991F5A95A9F780959095BC01AD
:100CA000CD010895EE0FFF1F0590F491E02D0994FA
:100CB0000400050006000700040003000200010014
:020CC000010031
:00000001FF
